{
  "_format": "hh-sol-artifact-1",
  "contractName": "DeFiInvestment",
  "sourceName": "contracts/DeFiInvestment.sol",
  "abi": [
    {
      "inputs": [],
      "stateMutability": "nonpayable",
      "type": "constructor"
    },
    {
      "anonymous": false,
      "inputs": [
        {
          "indexed": true,
          "internalType": "address",
          "name": "user",
          "type": "address"
        },
        {
          "indexed": false,
          "internalType": "uint256",
          "name": "amount",
          "type": "uint256"
        }
      ],
      "name": "Invested",
      "type": "event"
    },
    {
      "anonymous": false,
      "inputs": [
        {
          "indexed": false,
          "internalType": "uint256",
          "name": "amount",
          "type": "uint256"
        }
      ],
      "name": "RewardsDistributed",
      "type": "event"
    },
    {
      "anonymous": false,
      "inputs": [
        {
          "indexed": true,
          "internalType": "address",
          "name": "user",
          "type": "address"
        },
        {
          "indexed": false,
          "internalType": "uint256",
          "name": "amount",
          "type": "uint256"
        }
      ],
      "name": "Withdrawn",
      "type": "event"
    },
    {
      "inputs": [],
      "name": "BASIC_INVESTMENT_APY",
      "outputs": [
        {
          "internalType": "uint256",
          "name": "",
          "type": "uint256"
        }
      ],
      "stateMutability": "view",
      "type": "function"
    },
    {
      "inputs": [],
      "name": "distributeRewards",
      "outputs": [],
      "stateMutability": "nonpayable",
      "type": "function"
    },
    {
      "inputs": [],
      "name": "getInvestors",
      "outputs": [
        {
          "internalType": "address[]",
          "name": "",
          "type": "address[]"
        }
      ],
      "stateMutability": "view",
      "type": "function"
    },
    {
      "inputs": [
        {
          "internalType": "address",
          "name": "user",
          "type": "address"
        }
      ],
      "name": "getTotalPortfolioValue",
      "outputs": [
        {
          "internalType": "uint256",
          "name": "",
          "type": "uint256"
        }
      ],
      "stateMutability": "view",
      "type": "function"
    },
    {
      "inputs": [
        {
          "internalType": "address",
          "name": "user",
          "type": "address"
        }
      ],
      "name": "getUserPortfolio",
      "outputs": [
        {
          "internalType": "uint256",
          "name": "basicInvestment",
          "type": "uint256"
        },
        {
          "internalType": "uint256",
          "name": "pendingRewards",
          "type": "uint256"
        }
      ],
      "stateMutability": "view",
      "type": "function"
    },
    {
      "inputs": [],
      "name": "invest",
      "outputs": [],
      "stateMutability": "payable",
      "type": "function"
    },
    {
      "inputs": [
        {
          "internalType": "address",
          "name": "",
          "type": "address"
        }
      ],
      "name": "investments",
      "outputs": [
        {
          "internalType": "uint256",
          "name": "",
          "type": "uint256"
        }
      ],
      "stateMutability": "view",
      "type": "function"
    },
    {
      "inputs": [
        {
          "internalType": "uint256",
          "name": "",
          "type": "uint256"
        }
      ],
      "name": "investors",
      "outputs": [
        {
          "internalType": "address",
          "name": "",
          "type": "address"
        }
      ],
      "stateMutability": "view",
      "type": "function"
    },
    {
      "inputs": [],
      "name": "owner",
      "outputs": [
        {
          "internalType": "address",
          "name": "",
          "type": "address"
        }
      ],
      "stateMutability": "view",
      "type": "function"
    },
    {
      "inputs": [
        {
          "internalType": "address",
          "name": "",
          "type": "address"
        }
      ],
      "name": "rewards",
      "outputs": [
        {
          "internalType": "uint256",
          "name": "",
          "type": "uint256"
        }
      ],
      "stateMutability": "view",
      "type": "function"
    },
    {
      "inputs": [],
      "name": "totalInvested",
      "outputs": [
        {
          "internalType": "uint256",
          "name": "",
          "type": "uint256"
        }
      ],
      "stateMutability": "view",
      "type": "function"
    },
    {
      "inputs": [],
      "name": "withdraw",
      "outputs": [],
      "stateMutability": "nonpayable",
      "type": "function"
    }
  ],
  "bytecode": "0x6080604052348015600f57600080fd5b50336000806101000a81548173ffffffffffffffffffffffffffffffffffffffff021916908373ffffffffffffffffffffffffffffffffffffffff160217905550610ff88061005f6000396000f3fe6080604052600436106100a75760003560e01c80638da5cb5b116100645780638da5cb5b146101bd57806396b98862146101e8578063b2f5a54c14610225578063c297590214610250578063d9da0e701461027b578063e8b5e51f146102b8576100a7565b80630700037d146100ac5780631edb27e9146100e95780633ccfd60b146101275780633feb5f2b1461013e5780635216aeec1461017b5780636f4a2cd0146101a6575b600080fd5b3480156100b857600080fd5b506100d360048036038101906100ce9190610b00565b6102c2565b6040516100e09190610b46565b60405180910390f35b3480156100f557600080fd5b50610110600480360381019061010b9190610b00565b6102da565b60405161011e929190610b61565b60405180910390f35b34801561013357600080fd5b5061013c610366565b005b34801561014a57600080fd5b5061016560048036038101906101609190610bb6565b610559565b6040516101729190610bf2565b60405180910390f35b34801561018757600080fd5b50610190610598565b60405161019d9190610b46565b60405180910390f35b3480156101b257600080fd5b506101bb61059e565b005b3480156101c957600080fd5b506101d261072d565b6040516101df9190610bf2565b60405180910390f35b3480156101f457600080fd5b5061020f600480360381019061020a9190610b00565b610751565b60405161021c9190610b46565b60405180910390f35b34801561023157600080fd5b5061023a610769565b6040516102479190610ccb565b60405180910390f35b34801561025c57600080fd5b506102656107f7565b6040516102729190610b46565b60405180910390f35b34801561028757600080fd5b506102a2600480360381019061029d9190610b00565b6107fc565b6040516102af9190610b46565b60405180910390f35b6102c061088f565b005b60026020528060005260406000206000915090505481565b600080600160008473ffffffffffffffffffffffffffffffffffffffff1673ffffffffffffffffffffffffffffffffffffffff16815260200190815260200160002054600260008573ffffffffffffffffffffffffffffffffffffffff1673ffffffffffffffffffffffffffffffffffffffff1681526020019081526020016000205491509150915091565b6000600260003373ffffffffffffffffffffffffffffffffffffffff1673ffffffffffffffffffffffffffffffffffffffff16815260200190815260200160002054600160003373ffffffffffffffffffffffffffffffffffffffff1673ffffffffffffffffffffffffffffffffffffffff168152602001908152602001600020546103f29190610d1c565b905060008111610437576040517f08c379a000000000000000000000000000000000000000000000000000000000815260040161042e90610dad565b60405180910390fd5b6000600160003373ffffffffffffffffffffffffffffffffffffffff1673ffffffffffffffffffffffffffffffffffffffff168152602001908152602001600020819055506000600260003373ffffffffffffffffffffffffffffffffffffffff1673ffffffffffffffffffffffffffffffffffffffff168152602001908152602001600020819055503373ffffffffffffffffffffffffffffffffffffffff166108fc829081150290604051600060405180830381858888f19350505050158015610507573d6000803e3d6000fd5b503373ffffffffffffffffffffffffffffffffffffffff167f7084f5476618d8e60b11ef0d7d3f06914655adb8793e28ff7f018d4c76d505d58260405161054e9190610b46565b60405180910390a250565b6003818154811061056957600080fd5b906000526020600020016000915054906101000a900473ffffffffffffffffffffffffffffffffffffffff1681565b60045481565b60008054906101000a900473ffffffffffffffffffffffffffffffffffffffff1673ffffffffffffffffffffffffffffffffffffffff163373ffffffffffffffffffffffffffffffffffffffff161461062c576040517f08c379a000000000000000000000000000000000000000000000000000000000815260040161062390610e3f565b60405180910390fd5b60005b6003805490508110156106f15760006003828154811061065257610651610e5f565b5b9060005260206000200160009054906101000a900473ffffffffffffffffffffffffffffffffffffffff169050600061068a82610a3c565b905080600260008473ffffffffffffffffffffffffffffffffffffffff1673ffffffffffffffffffffffffffffffffffffffff16815260200190815260200160002060008282546106db9190610d1c565b925050819055505050808060010191505061062f565b507f6d1c76d614228b523baa4dcd9539e2c713b54ff4ab3ff2d1627e7f6cd32be4426004546040516107239190610b46565b60405180910390a1565b60008054906101000a900473ffffffffffffffffffffffffffffffffffffffff1681565b60016020528060005260406000206000915090505481565b606060038054806020026020016040519081016040528092919081815260200182805480156107ed57602002820191906000526020600020905b8160009054906101000a900473ffffffffffffffffffffffffffffffffffffffff1673ffffffffffffffffffffffffffffffffffffffff16815260200190600101908083116107a3575b5050505050905090565b600a81565b6000600260008373ffffffffffffffffffffffffffffffffffffffff1673ffffffffffffffffffffffffffffffffffffffff16815260200190815260200160002054600160008473ffffffffffffffffffffffffffffffffffffffff1673ffffffffffffffffffffffffffffffffffffffff168152602001908152602001600020546108889190610d1c565b9050919050565b600034116108d2576040517f08c379a00000000000000000000000000000000000000000000000000000000081526004016108c990610f00565b60405180910390fd5b6000600160003373ffffffffffffffffffffffffffffffffffffffff1673ffffffffffffffffffffffffffffffffffffffff168152602001908152602001600020540361097d576003339080600181540180825580915050600190039060005260206000200160009091909190916101000a81548173ffffffffffffffffffffffffffffffffffffffff021916908373ffffffffffffffffffffffffffffffffffffffff1602179055505b34600160003373ffffffffffffffffffffffffffffffffffffffff1673ffffffffffffffffffffffffffffffffffffffff16815260200190815260200160002060008282546109cc9190610d1c565b9250508190555034600460008282546109e59190610d1c565b925050819055503373ffffffffffffffffffffffffffffffffffffffff167fc3f75dfc78f6efac88ad5abb5e606276b903647d97b2a62a1ef89840a658bbc334604051610a329190610b46565b60405180910390a2565b60006064600a600160008573ffffffffffffffffffffffffffffffffffffffff1673ffffffffffffffffffffffffffffffffffffffff16815260200190815260200160002054610a8c9190610f20565b610a969190610f91565b9050919050565b600080fd5b600073ffffffffffffffffffffffffffffffffffffffff82169050919050565b6000610acd82610aa2565b9050919050565b610add81610ac2565b8114610ae857600080fd5b50565b600081359050610afa81610ad4565b92915050565b600060208284031215610b1657610b15610a9d565b5b6000610b2484828501610aeb565b91505092915050565b6000819050919050565b610b4081610b2d565b82525050565b6000602082019050610b5b6000830184610b37565b92915050565b6000604082019050610b766000830185610b37565b610b836020830184610b37565b9392505050565b610b9381610b2d565b8114610b9e57600080fd5b50565b600081359050610bb081610b8a565b92915050565b600060208284031215610bcc57610bcb610a9d565b5b6000610bda84828501610ba1565b91505092915050565b610bec81610ac2565b82525050565b6000602082019050610c076000830184610be3565b92915050565b600081519050919050565b600082825260208201905092915050565b6000819050602082019050919050565b610c4281610ac2565b82525050565b6000610c548383610c39565b60208301905092915050565b6000602082019050919050565b6000610c7882610c0d565b610c828185610c18565b9350610c8d83610c29565b8060005b83811015610cbe578151610ca58882610c48565b9750610cb083610c60565b925050600181019050610c91565b5085935050505092915050565b60006020820190508181036000830152610ce58184610c6d565b905092915050565b7f4e487b7100000000000000000000000000000000000000000000000000000000600052601160045260246000fd5b6000610d2782610b2d565b9150610d3283610b2d565b9250828201905080821115610d4a57610d49610ced565b5b92915050565b600082825260208201905092915050565b7f4e6f2066756e647320746f207769746864726177000000000000000000000000600082015250565b6000610d97601483610d50565b9150610da282610d61565b602082019050919050565b60006020820190508181036000830152610dc681610d8a565b9050919050565b7f4f6e6c79206f776e65722063616e20646973747269627574652072657761726460008201527f7300000000000000000000000000000000000000000000000000000000000000602082015250565b6000610e29602183610d50565b9150610e3482610dcd565b604082019050919050565b60006020820190508181036000830152610e5881610e1c565b9050919050565b7f4e487b7100000000000000000000000000000000000000000000000000000000600052603260045260246000fd5b7f496e766573746d656e74206d7573742062652067726561746572207468616e2060008201527f3000000000000000000000000000000000000000000000000000000000000000602082015250565b6000610eea602183610d50565b9150610ef582610e8e565b604082019050919050565b60006020820190508181036000830152610f1981610edd565b9050919050565b6000610f2b82610b2d565b9150610f3683610b2d565b9250828202610f4481610b2d565b91508282048414831517610f5b57610f5a610ced565b5b5092915050565b7f4e487b7100000000000000000000000000000000000000000000000000000000600052601260045260246000fd5b6000610f9c82610b2d565b9150610fa783610b2d565b925082610fb757610fb6610f62565b5b82820490509291505056fea26469706673582212201c895bf98efbb43a7011a4d817c15ab3f80a130b3d14a840fe636ae945d25bfd64736f6c634300081c0033",
  "linkReferences": {},
  "deployedLinkReferences": {}
}